{
    "contractName": "Pair",
    "abi": [
        {
            "inputs": [],
            "stateMutability": "nonpayable",
            "type": "constructor"
        },
        {
            "inputs": [
                {
                    "internalType": "address",
                    "name": "spender",
                    "type": "address"
                },
                {
                    "internalType": "uint256",
                    "name": "allowance",
                    "type": "uint256"
                },
                {
                    "internalType": "uint256",
                    "name": "needed",
                    "type": "uint256"
                }
            ],
            "name": "ERC20InsufficientAllowance",
            "type": "error"
        },
        {
            "inputs": [
                {
                    "internalType": "address",
                    "name": "sender",
                    "type": "address"
                },
                {
                    "internalType": "uint256",
                    "name": "balance",
                    "type": "uint256"
                },
                {
                    "internalType": "uint256",
                    "name": "needed",
                    "type": "uint256"
                }
            ],
            "name": "ERC20InsufficientBalance",
            "type": "error"
        },
        {
            "inputs": [
                {
                    "internalType": "address",
                    "name": "approver",
                    "type": "address"
                }
            ],
            "name": "ERC20InvalidApprover",
            "type": "error"
        },
        {
            "inputs": [
                {
                    "internalType": "address",
                    "name": "receiver",
                    "type": "address"
                }
            ],
            "name": "ERC20InvalidReceiver",
            "type": "error"
        },
        {
            "inputs": [
                {
                    "internalType": "address",
                    "name": "sender",
                    "type": "address"
                }
            ],
            "name": "ERC20InvalidSender",
            "type": "error"
        },
        {
            "inputs": [
                {
                    "internalType": "address",
                    "name": "spender",
                    "type": "address"
                }
            ],
            "name": "ERC20InvalidSpender",
            "type": "error"
        },
        {
            "inputs": [],
            "name": "Pair__AlreadyInitialized",
            "type": "error"
        },
        {
            "inputs": [],
            "name": "Pair__AmountZero",
            "type": "error"
        },
        {
            "inputs": [],
            "name": "Pair__Forbidden",
            "type": "error"
        },
        {
            "inputs": [],
            "name": "Pair__InsufficientLiquidityMinted",
            "type": "error"
        },
        {
            "anonymous": false,
            "inputs": [
                {
                    "indexed": true,
                    "internalType": "address",
                    "name": "owner",
                    "type": "address"
                },
                {
                    "indexed": true,
                    "internalType": "address",
                    "name": "spender",
                    "type": "address"
                },
                {
                    "indexed": false,
                    "internalType": "uint256",
                    "name": "value",
                    "type": "uint256"
                }
            ],
            "name": "Approval",
            "type": "event"
        },
        {
            "anonymous": false,
            "inputs": [
                {
                    "indexed": true,
                    "internalType": "address",
                    "name": "from",
                    "type": "address"
                },
                {
                    "indexed": true,
                    "internalType": "address",
                    "name": "to",
                    "type": "address"
                },
                {
                    "indexed": false,
                    "internalType": "uint256",
                    "name": "value",
                    "type": "uint256"
                }
            ],
            "name": "Transfer",
            "type": "event"
        },
        {
            "inputs": [],
            "name": "MINIMUM_LIQUIDITY",
            "outputs": [
                {
                    "internalType": "uint256",
                    "name": "",
                    "type": "uint256"
                }
            ],
            "stateMutability": "view",
            "type": "function"
        },
        {
            "inputs": [
                {
                    "internalType": "address",
                    "name": "owner",
                    "type": "address"
                },
                {
                    "internalType": "address",
                    "name": "spender",
                    "type": "address"
                }
            ],
            "name": "allowance",
            "outputs": [
                {
                    "internalType": "uint256",
                    "name": "",
                    "type": "uint256"
                }
            ],
            "stateMutability": "view",
            "type": "function"
        },
        {
            "inputs": [
                {
                    "internalType": "address",
                    "name": "spender",
                    "type": "address"
                },
                {
                    "internalType": "uint256",
                    "name": "value",
                    "type": "uint256"
                }
            ],
            "name": "approve",
            "outputs": [
                {
                    "internalType": "bool",
                    "name": "",
                    "type": "bool"
                }
            ],
            "stateMutability": "nonpayable",
            "type": "function"
        },
        {
            "inputs": [
                {
                    "internalType": "address",
                    "name": "account",
                    "type": "address"
                }
            ],
            "name": "balanceOf",
            "outputs": [
                {
                    "internalType": "uint256",
                    "name": "",
                    "type": "uint256"
                }
            ],
            "stateMutability": "view",
            "type": "function"
        },
        {
            "inputs": [
                {
                    "internalType": "address",
                    "name": "to",
                    "type": "address"
                }
            ],
            "name": "burn",
            "outputs": [],
            "stateMutability": "nonpayable",
            "type": "function"
        },
        {
            "inputs": [],
            "name": "decimals",
            "outputs": [
                {
                    "internalType": "uint8",
                    "name": "",
                    "type": "uint8"
                }
            ],
            "stateMutability": "view",
            "type": "function"
        },
        {
            "inputs": [],
            "name": "factory",
            "outputs": [
                {
                    "internalType": "address",
                    "name": "",
                    "type": "address"
                }
            ],
            "stateMutability": "view",
            "type": "function"
        },
        {
            "inputs": [],
            "name": "getReserves",
            "outputs": [
                {
                    "internalType": "uint112",
                    "name": "_reserve0",
                    "type": "uint112"
                },
                {
                    "internalType": "uint112",
                    "name": "_reserve1",
                    "type": "uint112"
                },
                {
                    "internalType": "uint32",
                    "name": "timestamp",
                    "type": "uint32"
                }
            ],
            "stateMutability": "view",
            "type": "function"
        },
        {
            "inputs": [
                {
                    "internalType": "address",
                    "name": "_token0",
                    "type": "address"
                },
                {
                    "internalType": "address",
                    "name": "_token1",
                    "type": "address"
                }
            ],
            "name": "initialize",
            "outputs": [],
            "stateMutability": "nonpayable",
            "type": "function"
        },
        {
            "inputs": [
                {
                    "internalType": "address",
                    "name": "to",
                    "type": "address"
                }
            ],
            "name": "mint",
            "outputs": [
                {
                    "internalType": "uint256",
                    "name": "_liquidity",
                    "type": "uint256"
                }
            ],
            "stateMutability": "nonpayable",
            "type": "function"
        },
        {
            "inputs": [],
            "name": "name",
            "outputs": [
                {
                    "internalType": "string",
                    "name": "",
                    "type": "string"
                }
            ],
            "stateMutability": "view",
            "type": "function"
        },
        {
            "inputs": [],
            "name": "symbol",
            "outputs": [
                {
                    "internalType": "string",
                    "name": "",
                    "type": "string"
                }
            ],
            "stateMutability": "view",
            "type": "function"
        },
        {
            "inputs": [],
            "name": "token0",
            "outputs": [
                {
                    "internalType": "address",
                    "name": "",
                    "type": "address"
                }
            ],
            "stateMutability": "view",
            "type": "function"
        },
        {
            "inputs": [],
            "name": "token1",
            "outputs": [
                {
                    "internalType": "address",
                    "name": "",
                    "type": "address"
                }
            ],
            "stateMutability": "view",
            "type": "function"
        },
        {
            "inputs": [],
            "name": "totalSupply",
            "outputs": [
                {
                    "internalType": "uint256",
                    "name": "",
                    "type": "uint256"
                }
            ],
            "stateMutability": "view",
            "type": "function"
        },
        {
            "inputs": [
                {
                    "internalType": "address",
                    "name": "to",
                    "type": "address"
                },
                {
                    "internalType": "uint256",
                    "name": "value",
                    "type": "uint256"
                }
            ],
            "name": "transfer",
            "outputs": [
                {
                    "internalType": "bool",
                    "name": "",
                    "type": "bool"
                }
            ],
            "stateMutability": "nonpayable",
            "type": "function"
        },
        {
            "inputs": [
                {
                    "internalType": "address",
                    "name": "from",
                    "type": "address"
                },
                {
                    "internalType": "address",
                    "name": "to",
                    "type": "address"
                },
                {
                    "internalType": "uint256",
                    "name": "value",
                    "type": "uint256"
                }
            ],
            "name": "transferFrom",
            "outputs": [
                {
                    "internalType": "bool",
                    "name": "",
                    "type": "bool"
                }
            ],
            "stateMutability": "nonpayable",
            "type": "function"
        }
    ],
    "bytecode": "60806040523461033857604080519081016001600160401b038111828210176102405760409081526008825267262816aa27a5a2a760c11b602083015280519081016001600160401b0381118282101761024057604052600281526104c560f41b602082015281516001600160401b03811161024057600354600181811c9116801561032e575b602082101461022257601f81116102c0575b50602092601f821160011461025f57928192935f92610254575b50508160011b915f199060031b1c1916176003555b80516001600160401b03811161024057600454600181811c91168015610236575b602082101461022257601f81116101b4575b50602091601f8211600114610154579181925f92610149575b50508160011b915f199060031b1c1916176004555b600580546001600160a01b03191633179055604051610fa6908161033d8239f35b015190505f80610113565b601f1982169260045f52805f20915f5b85811061019c57508360019510610184575b505050811b01600455610128565b01515f1960f88460031b161c191690555f8080610176565b91926020600181928685015181550194019201610164565b818111156100fa5760045f52601f820160051c7f8a35acfbc15ff81a39ae7d344fd709f28e8600b4aa8c65c6b64bfe7fe36bd19b6020841061021a575b81601f9101920160051c03905f5b82811061020d5750506100fa565b5f828201556001016101ff565b5f91506101f1565b634e487b7160e01b5f52602260045260245ffd5b90607f16906100e8565b634e487b7160e01b5f52604160045260245ffd5b015190505f806100b2565b601f1982169360035f52805f20915f5b8681106102a85750836001959610610290575b505050811b016003556100c7565b01515f1960f88460031b161c191690555f8080610282565b9192602060018192868501518155019401920161026f565b818111156100985760035f52601f820160051c7fc2575a0e9e593c00f959f8c92f12db2869c3395a3b0502d05e2516446f71f85b60208410610326575b81601f9101920160051c03905f5b828110610319575050610098565b5f8282015560010161030b565b5f91506102fd565b90607f1690610086565b5f80fdfe6080806040526004361015610012575f80fd5b5f3560e01c90816306fdde0314610be3575080630902f1ac14610ba2578063095ea7b314610b205780630dfe168114610af857806318160ddd14610adb57806323b872dd146109fc578063313ce567146109e1578063485cc955146109465780636a6278421461050457806370a08231146104cd57806389afcb44146102cc57806395d89b41146101c8578063a9059cbb14610197578063ba9a7a561461017b578063c45a015514610153578063d21220a71461012b5763dd62ed3e146100d7575f80fd5b34610127576040366003190112610127576100f0610cc5565b6100f8610cdb565b6001600160a01b039182165f908152600160209081526040808320949093168252928352819020549051908152f35b5f80fd5b34610127575f366003190112610127576007546040516001600160a01b039091168152602090f35b34610127575f366003190112610127576005546040516001600160a01b039091168152602090f35b34610127575f3660031901126101275760206040516103e88152f35b34610127576040366003190112610127576101bd6101b3610cc5565b6024359033610db4565b602060405160018152f35b34610127575f366003190112610127576040515f6004548060011c906001811680156102c2575b6020831081146102ae5782855290811561028a575060011461022c575b6102288361021c81850382610cf1565b60405191829182610c9b565b0390f35b91905060045f527f8a35acfbc15ff81a39ae7d344fd709f28e8600b4aa8c65c6b64bfe7fe36bd19b915f905b8082106102705750909150810160200161021c61020c565b919260018160209254838588010152019101909291610258565b60ff191660208086019190915291151560051b8401909101915061021c905061020c565b634e487b7160e01b5f52602260045260245ffd5b91607f16916101ef565b34610127576020366003190112610127576102e5610cc5565b305f525f60205260405f2054906008546103266002546103166001600160701b0361031b836103168388168a610d6b565b610d7e565b9460701c1686610d6b565b90801580156104c5575b1561034457634a08a4a360e11b5f5260045ffd5b30156104b257305f525f60205260405f2054848110610497576020915f8681976103e29430845283875203604083205580600254036002556040519081527fddf252ad1be2c89b69c2b068fc378daa952ba7f163c4a11628f55a4df523b3ef853092a360065460405163a9059cbb60e01b81526001600160a01b03878116600483015260248201939093529687939190921691839182906044820190565b03925af1918215610471576104379360209361047c575b5060075460405163a9059cbb60e01b81526001600160a01b0392831660048201526024810193909352919384929091169082905f9082906044820190565b03925af180156104715761044757005b6104689060203d60201161046a575b6104608183610cf1565b810190610d9c565b005b503d610456565b6040513d5f823e3d90fd5b61049290843d861161046a576104608183610cf1565b6103f9565b849063391434e360e21b5f523060045260245260445260645ffd5b634b637e8f60e11b5f525f60045260245ffd5b508115610330565b34610127576020366003190112610127576001600160a01b036104ee610cc5565b165f525f602052602060405f2054604051908152f35b346101275760203660031901126101275761051d610cc5565b6006546040516370a0823160e01b815230600482015290602090829060249082906001600160a01b03165afa8015610471575f90610913575b6007546040516370a0823160e01b81523060048201529250602090839060249082906001600160a01b03165afa908115610471575f916108d8575b6001600160701b0392506105a783821115610d27565b6105b383831115610d27565b6105d5600854916105cf85841695869460701c16938492610d5e565b93610d5e565b92821515806108cf575b1561088a5760025480610645576105fe6105f98686610d6b565b610e4b565b6103e71981019081116106315761061e57632aa60fef60e11b5f5260045ffd5b63ec442f0560e01b5f525f60045260245ffd5b634e487b7160e01b5f52601160045260245ffd5b81151580610881575b1561084b57610667610316926103168361066d97610d6b565b94610d6b565b908180821091180280821891145f1461068f57632aa60fef60e11b5f5260045ffd5b6001600160a01b0382161561061e5760025491818301809311610631576002929092556024916001600160a01b0316806108355781600254036002555b5f7fddf252ad1be2c89b69c2b068fc378daa952ba7f163c4a11628f55a4df523b3ef6020604051858152a36006546040516370a0823160e01b81523060048201529260209184919082906001600160a01b03165afa8015610471575f90610802575b6007546040516370a0823160e01b81523060048201529350602090849060249082906001600160a01b03165afa8015610471575f906107cf575b6020935061077f6001600160701b03831115610d27565b6107926001600160701b03821115610d27565b60701b6dffffffffffffffffffffffffffff60701b166001600160701b0391909116174260e01b6001600160e01b03191617600855604051908152f35b506020833d6020116107fa575b816107e960209383610cf1565b810103126101275760209251610768565b3d91506107dc565b506020823d60201161082d575b8161081c60209383610cf1565b81010312610127576024915161072e565b3d915061080f565b805f525f60205260405f208281540190556106cc565b60405162461bcd60e51b815260206004820152600e60248201526d7a65726f2072657365727665732160901b6044820152606490fd5b5082151561064e565b60405162461bcd60e51b815260206004820152601d60248201527f416d6f756e74206d757374206265206d6f7265207468616e207a65726f0000006044820152606490fd5b508315156105df565b90506020823d60201161090b575b816108f360209383610cf1565b81010312610127576001600160701b03915190610591565b3d91506108e6565b506020813d60201161093e575b8161092d60209383610cf1565b810103126101275760249051610556565b3d9150610920565b346101275760403660031901126101275761095f610cc5565b610967610cdb565b6005546001600160a01b031633036109d25760095490600160ff83161515146109c357600680546001600160a01b039485166001600160a01b031991821617909155600780549290941691161790915560ff1916600117600955005b63f669b6bd60e01b5f5260045ffd5b6337d93ae160e21b5f5260045ffd5b34610127575f36600319011261012757602060405160128152f35b3461012757606036600319011261012757610a15610cc5565b610a1d610cdb565b6001600160a01b0382165f818152600160209081526040808320338452909152902054909260443592915f198110610a5b575b506101bd9350610db4565b838110610ac0578415610aad573315610a9a576101bd945f52600160205260405f2060018060a01b0333165f526020528360405f209103905584610a50565b634a1406b160e11b5f525f60045260245ffd5b63e602df0560e01b5f525f60045260245ffd5b8390637dc7a0d960e11b5f523360045260245260445260645ffd5b34610127575f366003190112610127576020600254604051908152f35b34610127575f366003190112610127576006546040516001600160a01b039091168152602090f35b3461012757604036600319011261012757610b39610cc5565b602435903315610aad576001600160a01b0316908115610a9a57335f52600160205260405f20825f526020528060405f20556040519081527f8c5be1e5ebec7d5bd14f71427d1e84f3dd0314c0f7b2291e5b200ac8c7c3b92560203392a3602060405160018152f35b34610127575f366003190112610127576060600854604051906001600160701b03811682526001600160701b038160701c16602083015260e01c6040820152f35b34610127575f366003190112610127575f6003548060011c90600181168015610c91575b6020831081146102ae5782855290811561028a5750600114610c33576102288361021c81850382610cf1565b91905060035f527fc2575a0e9e593c00f959f8c92f12db2869c3395a3b0502d05e2516446f71f85b915f905b808210610c775750909150810160200161021c61020c565b919260018160209254838588010152019101909291610c5f565b91607f1691610c07565b602060409281835280519182918282860152018484015e5f828201840152601f01601f1916010190565b600435906001600160a01b038216820361012757565b602435906001600160a01b038216820361012757565b90601f8019910116810190811067ffffffffffffffff821117610d1357604052565b634e487b7160e01b5f52604160045260245ffd5b15610d2e57565b60405162461bcd60e51b81526020600482015260086024820152674f564552464c4f5760c01b6044820152606490fd5b9190820391821161063157565b8181029291811591840414171561063157565b8115610d88570490565b634e487b7160e01b5f52601260045260245ffd5b90816020910312610127575180151581036101275790565b6001600160a01b03169081156104b2576001600160a01b031691821561061e57815f525f60205260405f2054818110610e3257817fddf252ad1be2c89b69c2b068fc378daa952ba7f163c4a11628f55a4df523b3ef92602092855f525f84520360405f2055845f525f825260405f20818154019055604051908152a3565b8263391434e360e21b5f5260045260245260445260645ffd5b6001811115610f6d57806001600160801b821015610f5c575b600482600160401b610f0e941015610f4f575b640100000000811015610f42575b62010000811015610f35575b610100811015610f29575b6010811015610f1d575b1015610f15575b60030260011c610ebd8184610d7e565b0160011c610ecb8184610d7e565b0160011c610ed98184610d7e565b0160011c610ee78184610d7e565b0160011c610ef58184610d7e565b0160011c610f038184610d7e565b0160011c8092610d7e565b8111900390565b60011b610ead565b811c9160021b91610ea6565b60081c91811b91610e9c565b60101c9160081b91610e91565b60201c9160101b91610e85565b60401c9160201b91610e77565b5050608081901c600160401b610e64565b9056fea26469706673582212204375b4dfe70bee9dce5ea61aa8a953beee95d7ea063e476f74271d94c126ebf964736f6c63430008220033",
    "sourcePath": "c:/Users/aryan/Desktop/WEB3 PROJECTS/UniswapV2 Learning/src/Pair.sol",
    "compiler": {
        "name": "solc",
        "version": "0.8.34+commit.80d5c536"
    },
    "functionHashes": {
        "MINIMUM_LIQUIDITY()": "ba9a7a56",
        "allowance(address,address)": "dd62ed3e",
        "approve(address,uint256)": "095ea7b3",
        "balanceOf(address)": "70a08231",
        "burn(address)": "89afcb44",
        "decimals()": "313ce567",
        "factory()": "c45a0155",
        "getReserves()": "0902f1ac",
        "initialize(address,address)": "485cc955",
        "mint(address)": "6a627842",
        "name()": "06fdde03",
        "symbol()": "95d89b41",
        "token0()": "0dfe1681",
        "token1()": "d21220a7",
        "totalSupply()": "18160ddd",
        "transfer(address,uint256)": "a9059cbb",
        "transferFrom(address,address,uint256)": "23b872dd"
    },
    "gasEstimates": {
        "creation": {
            "codeDepositCost": "801200",
            "executionCost": "infinite",
            "totalCost": "infinite"
        },
        "external": {
            "MINIMUM_LIQUIDITY()": "439",
            "allowance(address,address)": "2922",
            "approve(address,uint256)": "24347",
            "balanceOf(address)": "2603",
            "burn(address)": "infinite",
            "decimals()": "285",
            "factory()": "2588",
            "getReserves()": "2362",
            "initialize(address,address)": "75326",
            "mint(address)": "infinite",
            "name()": "infinite",
            "symbol()": "infinite",
            "token0()": "2346",
            "token1()": "2610",
            "totalSupply()": "2344",
            "transfer(address,uint256)": "51018",
            "transferFrom(address,address,uint256)": "75567"
        },
        "internal": {
            "_update()": "infinite"
        }
    }
}